{
  "_format": "hh-sol-artifact-1",
  "contractName": "MemeVote",
  "sourceName": "contracts/MemeVote.sol",
  "abi": [
    {
      "inputs": [],
      "stateMutability": "nonpayable",
      "type": "constructor"
    },
    {
      "anonymous": false,
      "inputs": [
        {
          "indexed": true,
          "internalType": "uint256",
          "name": "memeId",
          "type": "uint256"
        },
        {
          "indexed": false,
          "internalType": "string",
          "name": "imageHash",
          "type": "string"
        }
      ],
      "name": "MemeUploaded",
      "type": "event"
    },
    {
      "anonymous": false,
      "inputs": [
        {
          "indexed": true,
          "internalType": "uint256",
          "name": "memeId",
          "type": "uint256"
        },
        {
          "indexed": true,
          "internalType": "address",
          "name": "voter",
          "type": "address"
        },
        {
          "indexed": false,
          "internalType": "bool",
          "name": "isOffensive",
          "type": "bool"
        }
      ],
      "name": "Voted",
      "type": "event"
    },
    {
      "inputs": [
        {
          "internalType": "uint256",
          "name": "_memeId",
          "type": "uint256"
        }
      ],
      "name": "getImageHash",
      "outputs": [
        {
          "internalType": "string",
          "name": "",
          "type": "string"
        }
      ],
      "stateMutability": "view",
      "type": "function"
    },
    {
      "inputs": [
        {
          "internalType": "uint256",
          "name": "_memeId",
          "type": "uint256"
        }
      ],
      "name": "getVotes",
      "outputs": [
        {
          "internalType": "uint256",
          "name": "offensive",
          "type": "uint256"
        },
        {
          "internalType": "uint256",
          "name": "notOffensive",
          "type": "uint256"
        }
      ],
      "stateMutability": "view",
      "type": "function"
    },
    {
      "inputs": [],
      "name": "memeCount",
      "outputs": [
        {
          "internalType": "uint256",
          "name": "",
          "type": "uint256"
        }
      ],
      "stateMutability": "view",
      "type": "function"
    },
    {
      "inputs": [
        {
          "internalType": "uint256",
          "name": "",
          "type": "uint256"
        }
      ],
      "name": "memes",
      "outputs": [
        {
          "internalType": "string",
          "name": "imageHash",
          "type": "string"
        },
        {
          "internalType": "uint256",
          "name": "offensiveVotes",
          "type": "uint256"
        },
        {
          "internalType": "uint256",
          "name": "notOffensiveVotes",
          "type": "uint256"
        }
      ],
      "stateMutability": "view",
      "type": "function"
    },
    {
      "inputs": [],
      "name": "owner",
      "outputs": [
        {
          "internalType": "address",
          "name": "",
          "type": "address"
        }
      ],
      "stateMutability": "view",
      "type": "function"
    },
    {
      "inputs": [
        {
          "internalType": "string",
          "name": "_imageHash",
          "type": "string"
        }
      ],
      "name": "uploadMeme",
      "outputs": [],
      "stateMutability": "nonpayable",
      "type": "function"
    },
    {
      "inputs": [
        {
          "internalType": "uint256",
          "name": "_memeId",
          "type": "uint256"
        },
        {
          "internalType": "bool",
          "name": "_isOffensive",
          "type": "bool"
        }
      ],
      "name": "vote",
      "outputs": [],
      "stateMutability": "nonpayable",
      "type": "function"
    }
  ],
  "bytecode": "0x6080604052348015600f57600080fd5b50336000806101000a81548173ffffffffffffffffffffffffffffffffffffffff021916908373ffffffffffffffffffffffffffffffffffffffff160217905550610fb58061005f6000396000f3fe608060405234801561001057600080fd5b506004361061007d5760003560e01c80637c051f421161005b5780637c051f42146101025780638da5cb5b1461011e578063c9d27afe1461013c578063ff981099146101585761007d565b8063388f60641461008257806362834462146100b45780637b2124d2146100e4575b600080fd5b61009c600480360381019061009791906106fa565b610189565b6040516100ab939291906107c6565b60405180910390f35b6100ce60048036038101906100c991906106fa565b61023b565b6040516100db9190610804565b60405180910390f35b6100ec61032d565b6040516100f99190610826565b60405180910390f35b61011c60048036038101906101179190610976565b610333565b005b610126610442565b6040516101339190610a00565b60405180910390f35b61015660048036038101906101519190610a53565b610466565b005b610172600480360381019061016d91906106fa565b61063e565b604051610180929190610a93565b60405180910390f35b60016020528060005260406000206000915090508060000180546101ac90610aeb565b80601f01602080910402602001604051908101604052809291908181526020018280546101d890610aeb565b80156102255780601f106101fa57610100808354040283529160200191610225565b820191906000526020600020905b81548152906001019060200180831161020857829003601f168201915b5050505050908060010154908060020154905083565b60606002548210610281576040517f08c379a000000000000000000000000000000000000000000000000000000000815260040161027890610b68565b60405180910390fd5b60006001600084815260200190815260200160002090508060000180546102a790610aeb565b80601f01602080910402602001604051908101604052809291908181526020018280546102d390610aeb565b80156103205780601f106102f557610100808354040283529160200191610320565b820191906000526020600020905b81548152906001019060200180831161030357829003601f168201915b5050505050915050919050565b60025481565b60008054906101000a900473ffffffffffffffffffffffffffffffffffffffff1673ffffffffffffffffffffffffffffffffffffffff163373ffffffffffffffffffffffffffffffffffffffff16146103c1576040517f08c379a00000000000000000000000000000000000000000000000000000000081526004016103b890610bd4565b60405180910390fd5b60006001600060025481526020019081526020016000209050818160000190816103eb9190610da0565b506002547fb6b983d081bb24bad806f8d9360c1e1ddf580d6cba4cac74f4f8dc38cd31fc978360405161041e9190610804565b60405180910390a26002600081548092919061043990610ea1565b91905055505050565b60008054906101000a900473ffffffffffffffffffffffffffffffffffffffff1681565b60025482106104aa576040517f08c379a00000000000000000000000000000000000000000000000000000000081526004016104a190610b68565b60405180910390fd5b60006001600084815260200190815260200160002090508060030160003373ffffffffffffffffffffffffffffffffffffffff1673ffffffffffffffffffffffffffffffffffffffff16815260200190815260200160002060009054906101000a900460ff1615610550576040517f08c379a000000000000000000000000000000000000000000000000000000000815260040161054790610f35565b60405180910390fd5b81156105755780600101600081548092919061056b90610ea1565b9190505550610590565b80600201600081548092919061058a90610ea1565b91905055505b60018160030160003373ffffffffffffffffffffffffffffffffffffffff1673ffffffffffffffffffffffffffffffffffffffff16815260200190815260200160002060006101000a81548160ff0219169083151502179055503373ffffffffffffffffffffffffffffffffffffffff16837ff2913dbe661ee2acc4a046d8fbcdc792373bda34c41c6086484b5345e5785e5f846040516106319190610f64565b60405180910390a3505050565b6000806002548310610685576040517f08c379a000000000000000000000000000000000000000000000000000000000815260040161067c90610b68565b60405180910390fd5b6000600160008581526020019081526020016000209050806001015481600201549250925050915091565b6000604051905090565b600080fd5b600080fd5b6000819050919050565b6106d7816106c4565b81146106e257600080fd5b50565b6000813590506106f4816106ce565b92915050565b6000602082840312156107105761070f6106ba565b5b600061071e848285016106e5565b91505092915050565b600081519050919050565b600082825260208201905092915050565b60005b83811015610761578082015181840152602081019050610746565b60008484015250505050565b6000601f19601f8301169050919050565b600061078982610727565b6107938185610732565b93506107a3818560208601610743565b6107ac8161076d565b840191505092915050565b6107c0816106c4565b82525050565b600060608201905081810360008301526107e0818661077e565b90506107ef60208301856107b7565b6107fc60408301846107b7565b949350505050565b6000602082019050818103600083015261081e818461077e565b905092915050565b600060208201905061083b60008301846107b7565b92915050565b600080fd5b600080fd5b7f4e487b7100000000000000000000000000000000000000000000000000000000600052604160045260246000fd5b6108838261076d565b810181811067ffffffffffffffff821117156108a2576108a161084b565b5b80604052505050565b60006108b56106b0565b90506108c1828261087a565b919050565b600067ffffffffffffffff8211156108e1576108e061084b565b5b6108ea8261076d565b9050602081019050919050565b82818337600083830152505050565b6000610919610914846108c6565b6108ab565b90508281526020810184848401111561093557610934610846565b5b6109408482856108f7565b509392505050565b600082601f83011261095d5761095c610841565b5b813561096d848260208601610906565b91505092915050565b60006020828403121561098c5761098b6106ba565b5b600082013567ffffffffffffffff8111156109aa576109a96106bf565b5b6109b684828501610948565b91505092915050565b600073ffffffffffffffffffffffffffffffffffffffff82169050919050565b60006109ea826109bf565b9050919050565b6109fa816109df565b82525050565b6000602082019050610a1560008301846109f1565b92915050565b60008115159050919050565b610a3081610a1b565b8114610a3b57600080fd5b50565b600081359050610a4d81610a27565b92915050565b60008060408385031215610a6a57610a696106ba565b5b6000610a78858286016106e5565b9250506020610a8985828601610a3e565b9150509250929050565b6000604082019050610aa860008301856107b7565b610ab560208301846107b7565b9392505050565b7f4e487b7100000000000000000000000000000000000000000000000000000000600052602260045260246000fd5b60006002820490506001821680610b0357607f821691505b602082108103610b1657610b15610abc565b5b50919050565b7f4d656d65206e6f7420666f756e64000000000000000000000000000000000000600082015250565b6000610b52600e83610732565b9150610b5d82610b1c565b602082019050919050565b60006020820190508181036000830152610b8181610b45565b9050919050565b7f4e6f7420617574686f72697a6564000000000000000000000000000000000000600082015250565b6000610bbe600e83610732565b9150610bc982610b88565b602082019050919050565b60006020820190508181036000830152610bed81610bb1565b9050919050565b60008190508160005260206000209050919050565b60006020601f8301049050919050565b600082821b905092915050565b600060088302610c567fffffffffffffffffffffffffffffffffffffffffffffffffffffffffffffffff82610c19565b610c608683610c19565b95508019841693508086168417925050509392505050565b6000819050919050565b6000610c9d610c98610c93846106c4565b610c78565b6106c4565b9050919050565b6000819050919050565b610cb783610c82565b610ccb610cc382610ca4565b848454610c26565b825550505050565b600090565b610ce0610cd3565b610ceb818484610cae565b505050565b5b81811015610d0f57610d04600082610cd8565b600181019050610cf1565b5050565b601f821115610d5457610d2581610bf4565b610d2e84610c09565b81016020851015610d3d578190505b610d51610d4985610c09565b830182610cf0565b50505b505050565b600082821c905092915050565b6000610d7760001984600802610d59565b1980831691505092915050565b6000610d908383610d66565b9150826002028217905092915050565b610da982610727565b67ffffffffffffffff811115610dc257610dc161084b565b5b610dcc8254610aeb565b610dd7828285610d13565b600060209050601f831160018114610e0a5760008415610df8578287015190505b610e028582610d84565b865550610e6a565b601f198416610e1886610bf4565b60005b82811015610e4057848901518255600182019150602085019450602081019050610e1b565b86831015610e5d5784890151610e59601f891682610d66565b8355505b6001600288020188555050505b505050505050565b7f4e487b7100000000000000000000000000000000000000000000000000000000600052601160045260246000fd5b6000610eac826106c4565b91507fffffffffffffffffffffffffffffffffffffffffffffffffffffffffffffffff8203610ede57610edd610e72565b5b600182019050919050565b7f416c726561647920766f74656400000000000000000000000000000000000000600082015250565b6000610f1f600d83610732565b9150610f2a82610ee9565b602082019050919050565b60006020820190508181036000830152610f4e81610f12565b9050919050565b610f5e81610a1b565b82525050565b6000602082019050610f796000830184610f55565b9291505056fea264697066735822122039c90657bf5751136607b2bc60453859114143f86c966955077fb0434e29751c64736f6c634300081c0033",
  "linkReferences": {},
  "deployedLinkReferences": {}
}